:060000000A128A1110280B
:10000800FE00030EF3000408F4000A08F5007F0858
:10001800F6000A128A1166280A128A111328831315
:100028003430FD000030FE00A130FF002030840095
:100038000A128A11B9200A128A11F901FA018301F8
:100048000A128A11272883120313870183160313C0
:100058008701831203138601013083160313860078
:1000680083160317890190308B00F701F80178088F
:10007800803AFF0080307F02031D44280A3077024F
:10008800031C47284828492839287708831203136E
:10009800B6003607203E840083130008870010301E
:1000A800B4002730B5000A128A11C8200A128A1132
:1000B8000130F7070318F80A0030F8073B280A123E
:1000C8008A1110288B1C69286A2895287808FA0054
:1000D8007708F90088287908F2007207203E840022
:1000E800831300088312031387001030F0002730B1
:1000F800F1000A128A11D9200A128A11FF30F90771
:100108000318FA0AFF30FA077A08803AFF008030AD
:100118007F02031D9128013079020318942895283D
:100128006F288B107608FF0075088A007408840011
:10013800730E8300FE0E7E0E09003F340034063431
:1001480000345B3400344F340034663400346D348A
:1001580000347C340034073400347F34003467348E
:1001680000347E088A007F0882000A128A11B520AE
:100178000A128A118000840A04087D0603190034D3
:10018800FF0A0319FE0AB928013083120313B402C7
:100198000030031CB503B502340A031DD728350AFD
:1001A800031DD728D828C82808000130F0020030DD
:1001B800031CF103F102700A031DE628710A031DEE
:0801C800E628E728D928080009
:08400000FF3FFF3FFF3FFF3FC0
:04400E00E42CFF3F60
:00000001FF
